:020000040800F2
:1000000000500020391700081D1600081F160008B0
:10001000211600082316000825160008000000001D
:10002000000000000000000000000000615E000809
:100030002716000800000000015F0008455F000867
:100040008117000881170008811700088117000830
:100050008117000881170008811700088117000820
:100060008117000881170008811700082916000869
:100070008117000881170008811700088117000800
:100080008117000881170008391600084916000872
:100090005916000881170008811700088117000809
:1000A00081170008811700088117000881170008D0
:1000B00081170008811700086916000881170008D9
:1000C00081170008811700088117000881170008B0
:1000D00081170008811700088117000881170008A0
:1000E0008117000881170008811700080000000030
:1000F0000000000000000000000000000000000000
:0C01000000000000000000005FF808F1A3
:1001100081F0004102E000BF83F0004330B54FEAB8
:1001200041044FEA430594EA050F08BF90EA020F25
:100130001FBF54EA000C55EA020C7FEA645C7FEAB8
:10014000655C00F0E2804FEA5454D4EB5555B8BFDB
:100150006D420CDD2C4480EA020281EA030382EA4C
:10016000000083EA010180EA020281EA0303362DDE
:1001700088BF30BD11F0004F4FEA01314FF4801CB1
:100180004CEA113102D0404261EB410113F0004FC3
:100190004FEA03334CEA133302D0524263EB43037A
:1001A00094EA050F00F0A780A4F10104D5F1200E18
:1001B0000DDB02FA0EFC22FA05F2801841F1000173
:1001C00003FA0EF2801843FA05F359410EE0A5F147
:1001D00020050EF1200E012A03FA0EFC28BF4CF078
:1001E000020C43FA05F3C01851EBE37101F000452E
:1001F00007D54FF0000EDCF1000C7EEB00006EEB3B
:100200000101B1F5801F1BD3B1F5001F0CD34908C4
:100210005FEA30004FEA3C0C04F101044FEA44521B
:1002200012F5800F80F09A80BCF1004F08BF5FEAA2
:10023000500C50F1000041EB045141EA050130BD82
:100240005FEA4C0C404141EB0101013C28BFB1F594
:10025000801FE9D291F0000F04BF01460020B1FADF
:1002600081F308BF2033A3F10B03B3F120020CDAB2
:100270000C3208DD02F1140CC2F10C0201FA0CF090
:1002800021FA02F10CE002F11402D8BFC2F1200CF5
:1002900001FA02F120FA0CFCDCBF41EA0C019040AB
:1002A000E41AA2BF01EB0451294330BD6FEA0404F4
:1002B0001F3C1CDA0C340EDC04F11404C4F12002DF
:1002C00020FA04F001FA02F340EA030021FA04F3F1
:1002D00045EA030130BDC4F10C04C4F1200220FA48
:1002E00002F001FA04F340EA0300294630BD21FA86
:1002F00004F0294630BD94F0000F83F4801306BF4C
:1003000081F480110134013D4EE77FEA645C18BF3F
:100310007FEA655C29D094EA050F08BF90EA020FD6
:1003200005D054EA000C04BF1946104630BD91EACE
:10033000030F1EBF0021002030BD5FEA545C05D1D1
:100340004000494128BF41F0004130BD14F5800410
:100350003CBF01F5801130BD01F0004545F0FE4184
:1003600041F470014FF0000030BD7FEA645C1ABFB9
:10037000194610467FEA655C1CBF0B46024650EAF0
:10038000013406BF52EA033591EA030F41F400211C
:1003900030BD00BF90F0000F04BF0021704730B5A2
:1003A0004FF4806404F132044FF000054FF0000177
:1003B00050E700BF90F0000F04BF0021704730B538
:1003C0004FF4806404F1320410F0004548BF40420D
:1003D0004FF000013EE700BF42004FEAE2014FEA62
:1003E00031014FEA02701FBF12F07F4393F07F4F3D
:1003F00081F06051704732F07F4208BF704793F040
:100400007F4F04BF41F40021704730B54FF4607452
:1004100001F0004521F000411CE700BF50EA010255
:1004200008BF704730B54FF000050AE050EA0102FE
:1004300008BF704730B511F0004502D5404261EB6E
:1004400041014FF4806404F132045FEA915C3FF4AF
:10045000D8AE4FF003025FEADC0C18BF03325FEA4C
:10046000DC0C18BF033202EBDC02C2F1200300FAFD
:1004700003FC20FA02F001FA03FE40EA0E0021FA22
:1004800002F11444BDE600BF4FEA410212F500122A
:1004900015D211D56FF47873B3EB625212D94FEACB
:1004A000C12343F0004343EA505311F0004F23FAB5
:1004B00002F018BF404270474FF00000704750EA0A
:1004C000013005D111F0004008BF6FF000407047C7
:1004D0004FF00000704700BF844641EA000313F06C
:1004E000030349D1403A23D30B6803604B68436050
:1004F0008B688360CB68C3600B6903614B694361A0
:100500008B698361CB69C3610B6A03624B6A436287
:100510008B6A8362CB6AC3620B6B03634B6B43636F
:100520008B6B8363CB6BC36340304031403ADBD28B
:1005300030320BD30B6803604B6843608B68836079
:10054000CB68C36010301031103AF3D20C3205D3AF
:1005500051F8043B40F8043B043AF9D2043208D085
:10056000D2071CBF11F8013B00F8013B01D30B88F7
:1005700003806046704700BF082A13D38B07B1D0B1
:1005800010F00303AED0C3F10403D21ADB071CBF83
:1005900011F8013B00F8013BA4D331F8023B20F8ED
:1005A000023B9FE7043AD9D3013A11F8013B00F826
:1005B000013BF9D20B7803704B7843708B788370D2
:1005C0006046704770B54FF0FF0C4CF4E06C1CEACD
:1005D00011541DBF1CEA135594EA0C0F95EA0C0F39
:1005E00000F0DEF82C4481EA030621EA4C5123EAAC
:1005F0004C5350EA013518BF52EA033541F48011DB
:1006000043F4801338D0A0FB02CE4FF00005E1FB8D
:1006100002E506F00042E0FB03E54FF00006E1FBD7
:1006200003569CF0000F18BF4EF0010EA4F1FF041A
:10063000B6F5007F64F5407404D25FEA4E0E6D415A
:1006400046EB060642EAC62141EA55514FEAC5206B
:1006500040EA5E504FEACE2EB4F1FD0C88BFBCF5E7
:10066000E06F1ED8BEF1004F08BF5FEA500E50F198
:10067000000041EB045170BD06F0004646EA01015E
:1006800040EA020081EA0301B4EB5C04C2BFD4EB90
:100690000C0541EA045170BD41F480114FF0000E89
:1006A000013C00F3AB8014F1360FDEBF002001F0F7
:1006B000004170BDC4F10004203C35DA0C341BDC71
:1006C00004F11404C4F1200500FA05F320FA04F043
:1006D00001FA05F240EA020001F0004221F0004177
:1006E00010EBD37021FA04F642EB06015EEA430EEA
:1006F00008BF20EAD37070BDC4F10C04C4F120051A
:1007000000FA04F320FA05F001FA04F240EA0200CC
:1007100001F0004110EBD37041F100015EEA430E9D
:1007200008BF20EAD37070BDC4F1200500FA05F2BD
:100730004EEA020E20FA04F301FA05F243EA02033C
:1007400021FA04F001F0004121FA04F220EA02004B
:1007500000EBD3705EEA430E08BF20EAD37070BD91
:1007600094F0000F0FD101F00046400041EB010171
:1007700011F4801F08BF013CF7D041EA060195F053
:10078000000F18BF704703F00046520043EB03030D
:1007900013F4801F08BF013DF7D043EA06037047FA
:1007A00094EA0C0F0CEA135518BF95EA0C0F0CD005
:1007B00050EA410618BF52EA4306D1D181EA03014B
:1007C00001F000414FF0000070BD50EA410606BF45
:1007D0001046194652EA430619D094EA0C0F02D18A
:1007E00050EA013613D195EA0C0F05D152EA0336CF
:1007F0001CBF104619460AD181EA030101F00041ED
:1008000041F0FE4141F470014FF0000070BD41F035
:10081000FE4141F4780170BD70B54FF0FF0C4CF40F
:10082000E06C1CEA11541DBF1CEA135594EA0C0F2E
:1008300095EA0C0F00F0A7F8A4EB050481EA030E7B
:1008400052EA03354FEA013100F088804FEA033362
:100850004FF0805545EA131343EA12634FEA022230
:1008600045EA111545EA10654FEA00260EF00041F1
:100870009D4208BF964244F1FD0404F5407402D243
:100880005B084FEA3202B61A65EB03055B084FEAD4
:1008900032024FF480104FF4002CB6EB020E75EBD1
:1008A000030E22BFB61A754640EA0C005B084FEAF9
:1008B0003202B6EB020E75EB030E22BFB61A754676
:1008C00040EA5C005B084FEA3202B6EB020E75EBC1
:1008D000030E22BFB61A754640EA9C005B084FEA39
:1008E0003202B6EB020E75EB030E22BFB61A754646
:1008F00040EADC0055EA060E18D04FEA051545EA35
:1009000016754FEA06164FEAC30343EA52734FEADD
:10091000C2025FEA1C1CC0D111F4801F0BD141EA56
:1009200000014FF000004FF0004CB6E711F4801FBB
:1009300004BF01430020B4F1FD0C88BFBCF5E06F9B
:100940003FF6AFAEB5EB030C04BFB6EB020C5FEAAB
:10095000500C50F1000041EB045170BD0EF0004E00
:100960004EEA113114EB5C04C2BFD4EB0C0541EA32
:10097000045170BD41F480114FF0000E013C90E62F
:1009800045EA060E8DE60CEA135594EA0C0F08BFF3
:1009900095EA0C0F3FF43BAF94EA0C0F0AD150EAF2
:1009A00001347FF434AF95EA0C0F7FF425AF104685
:1009B00019462CE795EA0C0F06D152EA03353FF4AD
:1009C000FDAE1046194622E750EA410618BF52EA2A
:1009D00043067FF4C5AE50EA41047FF40DAF52EAFE
:1009E00043057FF4EBAE12E74FF0FF3C06E000BF9B
:1009F0004FF0010C02E000BF4FF0010C4DF804CDA8
:100A00004FEA410C7FEA6C5C4FEA430C18BF7FEA67
:100A10006C5C1BD001B050EA410C0CBF52EA430C95
:100A200091EA030F02BF90EA020F0020704710F115
:100A3000000F91EA030F58BF994208BF90422CBFA4
:100A4000D8176FEAE37040F0010070474FEA410C9D
:100A50007FEA6C5C02D150EA013C07D14FEA430CBB
:100A60007FEA6C5CD6D152EA033CD3D05DF8040B2C
:100A7000704700BF8446104662468C46194663465E
:100A800000E000BF01B5FFF7B7FF002848BF10F135
:100A9000000F01BD4DF808EDFFF7F4FF0CBF01207A
:100AA00000205DF808FB00BF4DF808EDFFF7EAFFF6
:100AB00034BF012000205DF808FB00BF4DF808EDB1
:100AC000FFF7E0FF94BF012000205DF808FB00BFA6
:100AD0004DF808EDFFF7CEFF94BF012000205DF830
:100AE00008FB00BF4DF808EDFFF7C4FF34BF01203D
:100AF00000205DF808FB00BF4FEA410C7FEA6C5C08
:100B000002D150EA013C0AD14FEA430C7FEA6C5C07
:100B100002D152EA033C02D14FF0000070474FF07F
:100B2000010070470348044B834202D0034B03B1DA
:100B300018477047540800205408002000000000A7
:100B40000548064B1B1AD90F01EBA301491002D02F
:100B5000034B03B118477047540800205408002085
:100B60000000000010B5064C237843B9FFF7DAFF08
:100B7000044B13B10448AFF300800123237010BD70
:100B800060080020000000005CCF000808B5054B9D
:100B90001BB105490548AFF30080BDE80840FFF7E9
:100BA000CFBF00BF00000000640800205CCF000839
:100BB00000B585B000230193029303932A482B4A82
:100BC00002604FF480728260037303754FF46022F9
:100BD000C26143600523036101F060F8002831D150
:100BE0000023019301220292039301A91E4800F001
:100BF000ADFE50BB012301930223029301A91A48C1
:100C000000F0A4FE20BB022301930323029301A959
:100C1000154800F09BFEF0B90823019304230293CA
:100C20000DEB0301104800F091FEB8B909230193C0
:100C30000523029301A90C4800F088FE88B905B08D
:100C40005DF804FB00F0C6FBCAE700F0C3FBD1E788
:100C500000F0C0FBD7E700F0BDFBDDE700F0BAFB1A
:100C6000E4E700F0B7FBEAE7C008002000240140F9
:100C700030B589B000230493059306930793026867
:100C8000294B9A4201D009B030BD044603F56C43AC
:100C90009A6942F400729A619A6902F400720192B0
:100CA000019A9A6942F004029A619A6902F0040278
:100CB0000292029A9A6942F008029A619B6903F0D3
:100CC00008030393039B072304930325059504A9B5
:100CD000164801F0F5F90495059504A9144801F0AA
:100CE000EFF91448144B03600023436083608022B3
:100CF000C2604FF4807202614FF480624261202230
:100D00008261C36101F0CAF858B90A4B23625C6280
:100D100000220521122001F08DF8122001F09AF82E
:100D2000B1E700F057FBF0E7002401400008014064
:100D3000000C01407C0800200800024000B583B090
:100D40000A4B5A6942F001025A615B6903F00103E0
:100D50000193019B002205210B2001F06BF80B2071
:100D600001F078F803B05DF804FB00BF001002400A
:100D700010B582B08DF80700074C236808469847E5
:100D8000064B1B6801210DF10700984723680120DD
:100D9000984702B010BD00BFF40C0020FC0C0020EE
:100DA00038B500250DE0104B03EBC403585D01215D
:100DB000FFF7DEFF0134E4B214F0800FF3D0013509
:100DC000EDB2072D0FD8A5F150000021C0B2FFF7FA
:100DD000CFFF00210846FFF7CBFF00211020FFF7CF
:100DE000C7FF0024E8E738BDF008002008B5002060
:100DF0000BE0094A02EBC302002111540133DBB2BC
:100E000013F0800FF5D00130C0B2072801D80023BD
:100E1000F6E7FFF7C5FF08BDF008002010B5434C0A
:100E20002060434C2160434C2260434C23600028E7
:100E300079D0002977D0002A75D0002B73D00120FB
:100E400090473B4C2368002098473B4B1B6864202D
:100E500098472368012098470021AE20FFF788FFBC
:100E60000021D520FFF784FF00218020FFF780FFBD
:100E70000021A820FFF77CFF00213F20FFF778FF2B
:100E80000021D320FFF774FF00210846FFF770FF11
:100E900000214020FFF76CFF00218D20FFF768FF45
:100EA00000211420FFF764FF00212020FFF760FFDE
:100EB00000210220FFF75CFF0021A120FFF758FF6F
:100EC0000021C020FFF754FF0021DA20FFF750FF78
:100ED00000211220FFF74CFF00218120FFF748FF7F
:100EE0000021EF20FFF744FF0021D920FFF740FF4A
:100EF0000021F120FFF73CFF0021DB20FFF738FF46
:100F000000213020FFF734FF0021A420FFF730FF3D
:100F10000021A620FFF72CFF0021AF20FFF728FFBC
:100F2000FFF764FF01E04FF0FF3010BDFC0C002024
:100F3000F80C0020F40C0020F00C002010F0800FC2
:100F400020D13F291ED8CB08C3F10703DBB201F043
:100F50000701C1F107014FF0010C0CFA01F15FFA32
:100F600081FC3AB1084A02EBC002D15C41EA0C01B3
:100F7000D1547047044A02EBC002D05CC94349B265
:100F80000140D154704700BFF00800202DE9F04F18
:100F900083B0074688469A460025012B15D0022BC0
:100FA00054D14FF00C0BCBF3800101EBDB0101EBD3
:100FB00041014FEA41095FFA89F30093203AD3B225
:100FC000019344464FF0000935E04FF0080BEAE783
:100FD000019B03EB43011F4A02EB410212F8095047
:100FE00032E0019B03EB43011B4A02EB810212F842
:100FF000095029E0012221463846FFF79FFF6D0086
:10100000EDB20134E4B2A4EB08035B450CD0013629
:10101000F6B2072E0BD815F0800FEBD10022214637
:101020003846FFF78BFFEAE70137FFB2444609F184
:1010300001035FFA83F9009B994507D2BAF1010FCA
:10104000C6D0BAF1020FCCD00026E2E703B0BDE86B
:10105000F08F00BF24D40008B0CF00082DE9F04184
:1010600004460D4616461F46012B20D0022B21D0E8
:10107000BDE8F081C8F140039D4213DC3B4616F801
:10108000012B29462046FFF781FF0634E4B2307871
:101090002038C0B25E28EBD87A2CEBD94544EDB2AB
:1010A0000024E7E7FFF7A2FE00252C46E6E74FF015
:1010B0000808ECE74FF00C08E9E7000010B594B021
:1010C00005F0A4FC174B184A18491948FFF7A6FE6B
:1010D0000223184A14210A20FFF7C0FF0223164AF0
:1010E00028210A20FFF7BAFFFFF75AFE134C638846
:1010F000A288E188208903900291019200932388BD
:101100000F4A402104A805F093FE052221460D4810
:1011100000F000FD08210C4801F0EDF8642004F017
:101120000FFEE3E74D110008ED110008D91100088A
:101130000112000860D600086CD60008600F00207D
:1011400078D60008C0080020000C014008B54FF414
:101150007A7303FB00F0034BA3FB0030800904F01B
:10116000EFFD08BDD34D621070B508E001224FF4C9
:101170008041164801F0B9F8012004F0E1FD144E59
:101180004FF40061304601F0A9F804464FF40041E5
:101190000E4801F0A3F805464FF48061304601F097
:1011A0009DF806464FF480710A4801F097F8002C2C
:1011B000DCD0002DDAD0002ED8D00028D6D00022E6
:1011C0004FF48041014801F090F8D5E7001001404C
:1011D000000C01400008014008B502464FF4804170
:1011E000014801F082F808BD000C014008B5024634
:1011F0004FF48051014801F078F808BD000C01401F
:1012000008B564238AB20146014802F03EFD08BDDC
:101210006C0F0020034B0360034B0B6080231360B3
:10122000704700BF000F0020000D002010B58EB0E9
:10123000124C0DF11C0CA646BEE80F00ACE80F00E6
:101240009EE807008CE80700002107A804F045FD90
:101250000B4B1860EE4604F11C0CBCE80F00AEE826
:101260000F009CE807008EE807000021684604F0A4
:1012700034FD044B18600EB010BD00BF78CF0008DD
:10128000580F0020540F002008B50268044B9A4202
:1012900000D008BD8021034801F02DF8F9E700BF18
:1012A00000240140000C01402DE9F04188B00024E9
:1012B00004940594069407943C4B9A6942F01002FA
:1012C0009A619A6902F010020092009A9A6942F0BB
:1012D00020029A619A6902F020020192019A9A69A9
:1012E00042F004029A619A6902F004020292029AA0
:1012F0009A6942F008029A619B6903F0080303931C
:10130000039B2B4F22464FF48041384600F0EDFFFF
:10131000284E22464FF48051304600F0E6FF01226D
:1013200044F28801304600F0E0FF4FF4804304931C
:101330000125059506944FF00208CDF81C8004A9FC
:10134000384600F0BDFE4FF4004304930594069523
:1013500004A9384600F0B4FE4FF4406304930594AA
:10136000069504A9304600F0ABFE4FF4A043049369
:10137000059506940323079304A9304600F0A0FEC8
:101380004FF4807304930594069504A90A4800F06D
:1013900097FE8823049305950694CDF81C8004A934
:1013A000304600F08DFE08B0BDE8F081001002402C
:1013B00000100140000C01400008014008B502681F
:1013C000034B9A4200D008BD00F0EEF9FBE700BFE6
:1013D0000008004072B6FEE700B595B02822002153
:1013E0000DEB020005F038FE0023059306930793EA
:1013F00008930993019302930393049301220A92A1
:101400004FF480330B930E920222119212934FF4F9
:10141000E01313930AA801F0AFFFD8B90F23059387
:1014200002210691002307934FF4806208920993EA
:1014300005A802F0D3F978B9122301934FF40043C1
:1014400003930023049301A802F0B2FA30B915B057
:101450005DF804FBFFF7BEFFFFF7BCFFFFF7BAFF25
:1014600008B500F08FF9FFF7B7FFFFF71DFFFFF793
:1014700065FCFFF79DFB00F005F8FFF7D7FE04F0D1
:1014800027FCFEE708B50D480D4B03604FF482734F
:10149000436000238360C360036143614FF40072C3
:1014A0008261C3610362436283620A23C36202F002
:1014B00091FB00B908BDFFF78DFFFBE76C0F002023
:1014C0000038004000B587B00023029303930493D3
:1014D00005930268124B9A4202D007B05DF804FBF4
:1014E00003F5EC33DA6942F48042DA61DA6902F436
:1014F00080420092009A9A6942F008029A619B69C0
:1015000003F008030193019B4FF42043029302234D
:1015100003930323059302A9024800F0D1FDDCE701
:1015200000380040000C014000B583B0114B9A69AF
:1015300042F001029A619A6902F001020092009A57
:10154000DA6942F08052DA61DB6903F0805301937B
:10155000019B00220F216FF0010000F06BFC064A96
:10156000536823F0E06343F00073536003B05DF809
:1015700004FB00BF001002400000014030B589B0FC
:101580000446214BDA6942F00402DA61DB6903F0B8
:1015900004030193019B02A903A802F0EBF9069B47
:1015A000CBB902F0D7F90346184AA2FB03239B0CE0
:1015B000013B1748174A026040F2E732C2604360BD
:1015C000002303618360836102F06CFD054630B146
:1015D000284609B030BD02F0BDF94300E4E70C48ED
:1015E00002F036FC05460028F2D11E2000F032FC45
:1015F0000F2C01D90125EBE7002221461E2000F027
:1016000019FC054B1C60E3E70010024083DE1B431E
:10161000C40F00200008004008000020FEE7FEE79D
:10162000FEE7FEE7FEE7704708B5024800F0A6FCBB
:1016300008BD00BF7C08002008B5024800F0F6F89D
:1016400008BD00BFC008002008B5024801F046FCF4
:1016500008BD00BF502C002008B5024801F03EFC38
:1016600008BD00BF502C002008B5024802F028FC3D
:1016700008BD00BFC40F00200120704708B505F069
:101680003BFD162303604FF0FF3008BD08B54FF057
:10169000FF31FFF7F3FFFEE770B50C461646002555
:1016A00006E0AFF30080214601F8010B01350C463E
:1016B000B542F6DB304670BD70B50C4616460025C7
:1016C00004E014F8010BAFF300800135B542F8DBFC
:1016D000304670BD4FF0FF3070474FF400534B6001
:1016E00000207047012070470020704710B5034666
:1016F0000C4A0D490D48006840B10C48006803448D
:10170000521A934206D8094A136010BD0748084C84
:101710000460F2E705F0F0FC0C2303604FF0FF30AB
:10172000F3E700BF00500020000400000C10002070
:101730004032002070470000FFF7FCFF0B480C49C7
:101740000C4A002302E0D458C4500433C4188C421D
:10175000F9D3094A094C002301E013600432A24284
:10176000FBD305F0CFFCFFF77BFE704700000020A5
:101770005408002034DB0008600800203C320020C0
:10178000FEE7000008B5074A136843F01003136032
:10179000032000F03DFB0F20FFF7F0FEFFF7C4FE33
:1017A000002008BD00200240034A1168034B1B784B
:1017B0000B441360704700BF10100020040000208D
:1017C000014B1868704700BF1010002008B5436A2D
:1017D0009A6A12F0500F1ED19A6A42F400729A620D
:1017E0001A68926802F46022B2F5602F03D018469E
:1017F000FFF74AFD08BD1A7B002AF8D19A6A22F445
:1018000080729A629A6A12F4805FF0D19A6A42F00A
:1018100001029A62EBE71B6A1B6B9847EAE7704785
:1018200008B5406AFFF7FBFF08BD704770B5044676
:1018300003681E685D6815F0200F17D016F0020FC0
:1018400014D0826A12F0100F03D1826A42F400723F
:1018500082629A6802F46022B2F5602F33D020468B
:10186000FFF712FD23686FF012021A6015F0800F67
:1018700022D016F0040F1FD0A36A13F0100F03D16B
:10188000A36A43F40053A3622268936803F4E0431D
:10189000B3F5E04F2ED0536813F4806F05D19368F1
:1018A00003F46023B3F5602F21D0204600F07AFACC
:1018B00023686FF00C021A6015F0400F02D016F08A
:1018C000010F28D170BD227B002AC8D15A6822F0AE
:1018D00020025A60A36A23F48073A362A36A13F4FC
:1018E000805FBCD1A36A43F00103A362B7E7237B07
:1018F000002BDAD1536823F080035360A36A23F4EA
:101900008053A362A36A13F4807FCED1A36A43F00D
:101910000103A362C9E7A36A43F48033A3622046AC
:10192000FFF783FF23686FF001021A60CAE7704770
:1019300008B5406A836A43F040038362C36A43F098
:101940000403C362FFF7F3FF08BD000030B482B0A8
:101950000022019290F82420012A00F08F80034693
:10196000012280F824204A68062A2DD80468606B7A
:1019700002EB8202053A4FF01F0C0CFA02FC20EA3F
:101980000C000D6805FA02F2024362630A68092A34
:1019900038D91C68E06802EB42021E3A4FF0070C8F
:1019A0000CFA02FC20EA0C008D6805FA02F20243F0
:1019B000E2600A68103A012A34D90020002283F834
:1019C000242002B030BC70470C2A0DD80568286B63
:1019D00002EB8202233A1F24944020EA04000C68A0
:1019E000944020432863D1E70568E86A02EB82024D
:1019F000413A1F24944020EA04000C68944020439C
:101A0000E862C3E71C68206902EB42024FF0070C52
:101A10000CFA02FC20EA0C008D6805FA02F202437F
:101A20002261C6E71A681648824205D09A6A42F0D7
:101A300020029A620120C1E7906810F4000F1BD1C8
:101A4000906840F4000090600A68102A01D00020DD
:101A5000B4E70C4A12680C49A1FB0212920C02EB8B
:101A600082025200019202E0019A013A0192019A27
:101A7000002AF9D10020A1E700209FE70220A0E77B
:101A8000002401400000002083DE1B4330B583B0FA
:101A90000023019303689A6812F0010F33D10446C2
:101AA0009A6842F001029A60184B1B68184AA2FB20
:101AB00003239B0C019302E0019B013B0193019BDB
:101AC000002BF9D1FFF77CFE054623689B6813F0D5
:101AD000010F16D1FFF774FE431B022BF5D92368C3
:101AE0009B6813F0010FF0D1A36A43F01003A362C7
:101AF000E36A43F00103E362002384F82430012009
:101B000002E0002000E0002003B030BD0000002013
:101B100083DE1B43F8B504460D461646016844486B
:101B2000814259D0434B994256D094F82430012B2E
:101B30007CD0012384F824302046FFF7A7FF074616
:101B400000286ED1A16A21F4706121F0010141F4F5
:101B50008071A1622268374B9A4244D0A36A23F471
:101B60008013A362536813F4806F05D0A36A23F433
:101B7000405343F48053A362A36A13F4805F48D0B8
:101B8000E36A23F00603E362002384F82430236A27
:101B9000294A9A62236A294ADA62236A284A1A631E
:101BA00023686FF002021A602268936843F480731E
:101BB0009360216833462A464C31206A00F0A2F92E
:101BC00023689A6802F46022B2F5602F24D09A68E4
:101BD00042F480129A6027E0154B5B6813F4702F73
:101BE000A3D0012720E0A3F580635B6813F4702F76
:101BF000B4D0A36A43F48013A3620D4B5B6813F463
:101C0000806FB9D0A36A23F4405343F48053A36296
:101C1000B2E70023E362B7E79A6842F4A0029A6051
:101C200002E0002384F824303846F8BD0227FBE7A1
:101C30000024014000280140CD17000821180008A9
:101C40003119000838B503689A6812F0010F01D104
:101C5000002038BD04469A6822F001029A60FFF71E
:101C6000AFFD054623689B6813F0010F13D0FFF703
:101C7000A7FD431B022BF5D923689B6813F0010FC6
:101C8000F0D0A36A43F01003A362E36A43F00103B8
:101C9000E3620120DDE70020DBE7000000287BD0C5
:101CA00070B50446836A002B4DD02046FFF7CAFF6B
:101CB000A36A13F0100369D1002867D1A26A22F445
:101CC000885222F0020242F00202A2626268E169D6
:101CD0000A43217B42EA4102A568B5F5807F02D024
:101CE000012D36D01D46267D012E35D0266871681F
:101CF00021F46941294371602568AE682749314064
:101D00001143A960A168B1F5807F01D0012902D1FA
:101D10002369013B1B052568E96A21F470010B4327
:101D2000EB62236899681E4B0B409A4225D0A36A48
:101D300023F0120343F01003A362E36A43F00103AC
:101D4000E362012027E0C36280F82430FEF790FFB1
:101D5000ABE74FF48075C6E731B9A169013945EAAF
:101D6000413141F40065C1E7A16A41F02001A1625F
:101D7000E16A41F00101E162B8E70023E362A36A8E
:101D800023F0030343F00103A36204E0A36A43F0DA
:101D90001003A362012070BD01207047FDF7E1FF31
:101DA000FE0E1FFF70470000002808DB0901C9B2C2
:101DB00000F1604000F5614080F80013704700F0CA
:101DC0000F000901C9B2014B1954704714ED00E02E
:101DD00000B500F00700C0F1070CBCF1040F28BFEC
:101DE0004FF0040C031D062B0FD9C31E4FF0FF3E0E
:101DF0000EFA0CF021EA000199400EFA03FE22EAE5
:101E00000E0241EA02005DF804FB0023EEE7000049
:101E1000074AD36823F4E0631B041B0C000200F4A0
:101E2000E060034343F0BF6343F40033D360704783
:101E300000ED00E010B50446054BD868C0F3022061
:101E4000FFF7C6FF01462046FFF7AEFF10BD00BFFB
:101E500000ED00E0002807DB00F01F02400901232D
:101E60009340024A42F82030704700BF00E100E092
:101E700030B40124056CAC40C56B6C6004686360D1
:101E80004368102B05D0036899600368DA6030BCA2
:101E9000704703689A600368D960F8E750B310B4DC
:101EA00002460168144B0B441448A0FB03031B09B2
:101EB0009B001364124BD363022382F8213008681D
:101EC0006FF30D10536894682343D4682343146957
:101ED00023435469234394692343D469234303432D
:101EE0000B6000209063012382F8213082F82000EB
:101EF00010BC704701207047F8FFFDBFCDCCCCCCA3
:101F00000000024038B5044690F82000012832D085
:101F1000012084F8200094F82100C0B2012804D0E8
:101F2000002384F82030022038BD022084F82100EC
:101F30000020A0632568286820F001002860204662
:101F4000FFF796FFE36A5BB12268136843F00E0364
:101F500013602268136843F0010313600020E3E775
:101F60002268136823F0040313602268136843F0A7
:101F70000A031360EDE70220D6E7000038B5C36B13
:101F80001A6804682568016C04238B40134235D01D
:101F900015F0040F32D0236813F0200F03D123680B
:101FA00023F0040323600368434A934214D014329D
:101FB000934218D01432934217D01432934217D060
:101FC0001432934217D01432934202D04FF0806201
:101FD00003E04FF4800200E00422384B5A60C36AE9
:101FE00003B1984738BD4022F7E74FF48062F4E729
:101FF0004FF48042F1E74FF48022EEE702238B405A
:1020000013423CD015F0020F39D0236813F0200F93
:1020100006D1236823F00A032360012380F82130CE
:102020000368254A934214D0143293421CD01432D0
:1020300093421BD0143293421BD0143293421BD0D4
:102040001432934202D04FF0007203E04FF40012BA
:1020500000E00222194B5A60002380F82030836A86
:10206000002BBFD09847BDE72022F3E74FF4007262
:10207000F0E74FF40052EDE74FF40032EAE70823AF
:102080008B401342AED015F0080FABD0236823F07D
:102090000E032360026CC16B012303FA02F24A6053
:1020A000836380F82130002380F82030036B002BFD
:1020B00098D0984796E700BF080002400000024011
:1020C00070B582B00024A446A1E07E4DAB4214D08E
:1020D0000CD8A5F58015AB420FD005F57025AB42A5
:1020E0000BD0A5F58015AB4210D106E0764DAB4282
:1020F00003D005F58035AB4208D18B68002B50D05A
:10210000012B49D04261082400E0CC68BEF1FF0FEA
:1021100049D806464FEA8C0233680F25954023EADA
:10212000050304FA02F2134333604B6813F0805F37
:102130006BD0664B9A6942F001029A619B6903F089
:1021400001030193019B4FEA9C02951C604B53F8DD
:1021500025600CF00305AD000F23AB4026EA030613
:102160005C4B984226D003F58063984200F08C8047
:1021700003F58063984200F0898003F580639842FC
:1021800016D0042317E0CC680434BFE7CC680834C9
:10219000BCE7CC680C34B9E702610824B6E7002438
:1021A000B4E70424B2E7061DACF108029200B3E7DD
:1021B000032300E00023AB4033430232444D45F893
:1021C00022304B6813F4801F62D0434A936843EA7D
:1021D0000E0393604B6813F4001F5FD03E4AD36830
:1021E00043EA0E03D3604B6813F4003F5CD03A4AD5
:1021F000536843EA0E0353604B6813F4803F59D091
:10220000354A136843EA0E0313600CF1010C0B68A6
:1022100033FA0CF254D0012202FA0CF203EA020E55
:1022200032EA0303F1D14B68122B3FF64EAF122B6B
:102230003FF66CAF01A555F823F000BFFB20000866
:102240000B2100088D2100089F2100080D210008A6
:102250000D2100080D2100080D2100080D210008A6
:102260000D2100080D2100080D2100080D21000896
:102270000D2100080D2100080D2100080D21000886
:102280008721000893210008012394E7022392E7A5
:10229000114A936823EA0E0393609BE70E4AD368C2
:1022A00023EA0E03D3609EE70B4A536823EA0E032A
:1022B0005360A1E7084A136823EA0E031360A4E7FA
:1022C00002B070BD0000221000003110001002406A
:1022D00000000140000801400004014083681942E9
:1022E00001D001207047002070470AB1016170479A
:1022F000090401617047C36801EA030221EA03018E
:1023000041EA02410161704738B512F4804F44D070
:102310000468B4F850309BB291F800C003EBCC03D2
:10232000023304EB4304B4F80044C4F309048B699A
:10233000A34228D31B1B8B618B697BB9056835F8D9
:102340002C309BB223F4804323F0700383F40053BA
:1023500043F4004343F0800325F82C3012F0400F83
:102360000ED002680D7832F825309BB223F4E0439A
:1023700023F0700343F4004343F0C00322F82530F8
:1023800024B9204638BD00238B61D5E723460A894E
:102390004969006802F031FEF3E70468B4F8503090
:1023A0009BB291F800C003EBCC03063304EB43046B
:1023B000B4F80044C4F309048B69A3422FD31B1B58
:1023C0008B618B697BB9056835F82C309BB223F49F
:1023D000804323F0700383F4005343F4004343F03D
:1023E000800325F82C3012F0400F0FD1026891F8CD
:1023F00000C032F82C309BB223F4E04323F070038A
:1024000043F4004343F0C00322F82C30002CB8D032
:1024100023464A894969006802F0EFFDB1E70023CD
:102420008B61CEE738B500286ED0044690F8913223
:10243000A3B1032384F8913200236371206801F073
:102440006FFE234653F8040B0ECB01F059FE50B13A
:10245000022384F891320125284638BD80F8903255
:1024600004F0C8FBE5E70021206801F063FE0346A5
:1024700008B9024615E0022384F891320125EBE702
:1024800002EB820104EBC101012048740A740020B0
:10249000C87408624862013202EB8201C9006050D0
:1024A000D2B220799042EBD816E003EB830204EB22
:1024B000C202002182F8511182F8503182F8531182
:1024C000C2F86011C2F8641103EB830204EBC2028C
:1024D000C2F868110133DBB29842E6D8234653F8BC
:1024E000040B0ECB01F028FE054620B1022384F830
:1024F00091320125B0E700236373012384F8913200
:10250000206802F078F9A7E70125A5E738B590F82B
:102510009032012B11D00446012580F890520068BA
:1025200001F0F5FD2946204604F081FC206802F008
:1025300060F9002084F8900238BD0220FCE770B5F5
:1025400005460C46164612F0400F00F00E81026858
:10255000B2F850309BB2097803EBC103023302EBAF
:102560004302B2F80024C2F30902A36993424ED990
:102570009B1AA361A369002B66D16378002B49D114
:102580002B68B3F8502092B2134403EB0113B3F855
:102590000424C2F30902A3F80424B3F804246FEA64
:1025A00042426FEA524292B2A3F804242B68627846
:1025B000002A3CD1B3F8502092B21344227803EBA6
:1025C0000213B3F80C24C2F30902A3F80C24B3F8E5
:1025D0000C246FEA42426FEA524292B2A3F80C24F2
:1025E0002178284604F042FB16F4804F41D02A6837
:1025F000217832F821309BB223F4E04323F07003BA
:1026000043F4404343F0800322F8213031E00023BB
:10261000A361AFE7012BC9D12B68B3F8502092B268
:10262000134403EB01130022A3F80424BEE7012A9C
:10263000D6D1B3F8502092B21344227803EB0213A0
:102640000022A3F80C24CBE716F4804F0DD02868A5
:1026500030F821309BB223F4E04323F0700343F4BD
:10266000404343F0800320F8213094F82430012BBC
:1026700012D02A68217832F821309BB223F4E0434B
:1026800023F0400383F0300343F4004343F080031E
:1026900022F82130002070BD636913446361E3694F
:1026A0001344E361216A2369994224D3C91A216240
:1026B0006278002A44D12A68B2F8501089B20A44DC
:1026C000217802EB0112B2F80414C1F30901A2F857
:1026D00004143E2B1BD9580913F01F0F00D10138E9
:1026E000B2F8041489B2800280B2014341F400417F
:1026F000A2F8041426E021B9002384F824301346FC
:10270000D6E7002384F8243023620B46D0E74BB988
:10271000B2F804146FEA41416FEA514189B2A2F85C
:1027200004140FE0590813F0010F00D00131B2F882
:10273000040480B2890289B20143A2F8041401E0C2
:10274000012A06D09BB222896169286802F05BF8F1
:102750008FE72A68B2F8501089B20A44217802EB58
:10276000011299B2A2F80414ECE70268B2F85030F2
:102770009BB2097803EBC103063302EB4302B2F8C4
:102780000024C2F30902A36993424FD39B1AA361A9
:10279000A369002B67D16378002B4AD12B68B3F86B
:1027A000502092B2134403EB0113B3F80424C2F394
:1027B0000902A3F80424B3F804246FEA42426FEA42
:1027C000524292B2A3F804242B686278002A3DD1C9
:1027D000B3F8502092B21344227803EB0213B3F8FB
:1027E0000C24C2F30902A3F80C24B3F80C246FEAFA
:1027F00042426FEA524292B2A3F80C242178284652
:1028000004F034FA16F4804F7FF433AF2A6821784D
:1028100032F821309BB223F4E04323F0700343F4F9
:10282000404343F0800322F8213022E70023A361D4
:10283000AEE7012BC8D12B68B3F8502092B21344F5
:1028400003EB01130022A3F80424BDE7012AD5D12C
:10285000B3F8502092B21344227803EB0213002203
:10286000A3F80C24CAE716F4804F0DD1286830F87D
:1028700021309BB223F4E04323F0700343F4404340
:1028800043F0800320F8213094F82430012B7FF4AA
:10289000F0AE636913446361E3691344E361216A41
:1028A0002369994224D3C91A21622A6861780029D0
:1028B00043D1B2F8501089B20A44217802EB0112D8
:1028C000B2F80C14C1F30901A2F80C143E2B1BD969
:1028D000580913F01F0F00D10138B2F80C1489B257
:1028E000800280B2014341F40041A2F80C1426E0BA
:1028F00021B9002384F824301346D6E7002323624D
:1029000084F824300B46D0E74BB9B2F80C146FEAC8
:1029100041416FEA514189B2A2F80C140FE0590805
:1029200013F0010F00D00131B2F80C0480B289021B
:1029300089B20143A2F80C1401E0012906D09BB230
:1029400062896169286801F05EFF92E6B2F8501072
:1029500089B20A44217802EB011299B2A2F80C1450
:10296000EDE72DE9F04105462868B0F8443013F44E
:10297000004F00F09D82B0F84440A3B214F00F0461
:1029800040F0DE8013F0100F6BD003889AB213F47E
:10299000006F40F0998012F4004FE5D0038823F0D7
:1029A00070031B051B0D43F0800303802868B0F8FB
:1029B00050309BB295F8502103EBC203063300EB75
:1029C0004303B3F80034C3F30903C5F86C318BB18A
:1029D000D5F8641171B1B5F8562102F00EFBD5F8A7
:1029E0006431D5F86C211344C5F8643100212846C0
:1029F00004F030F92A68138899B213F4006FB3D148
:102A000001F44051B1F5405FAED0B2F850309BB206
:102A10001A44B2F80C34C3F30903A2F80C34D5F805
:102A200060313E2B73D9590913F01F0F00D10139C2
:102A3000B2F80C349BB2890289B20B4343F40043D1
:102A4000A2F80C342A6813889BB223F4804323F045
:102A5000700383F4405343F4004343F08003138036
:102A600082E703889BB223F4E14323F070036FEA0B
:102A700043436FEA53439BB203802A68B2F8503055
:102A80009BB2297C03EBC103023302EB4302B2F891
:102A90000034C3F30903EB626A6A1A446A620021D4
:102AA000284604F0E3F86B7B002B3FF45DAFAB6A84
:102AB000002B7FF459AF6B7B2A6843F08003A2F8A8
:102AC0004C3000236B734FE7B0F850309BB295F851
:102AD000502103EBC203063300EB4303B3F8003489
:102AE000C3F30903C5F86C31B5F8562105F5267115
:102AF00002F083FA2A68138823F070031B051B0D6C
:102B000043F080031380284604F09CF82CE74BB96F
:102B1000B2F80C346FEA43436FEA53439BB2A2F816
:102B20000C348FE7590813F0010F00D00131B2F8CF
:102B30000C3498B28B029BB20343A2F80C3481E7A9
:102B400030F824309EB213F4004F50D116F0800FAD
:102B50003FF40AAF04EB8401C900103129442A680C
:102B600032F824309BB223F4E14323F070036FEA80
:102B700043436FEA53439BB222F8243004EB8403AF
:102B800005EBC303DB7C012B00F0F28016F4807FA1
:102B900040F089812868B0F850309BB204EB840281
:102BA00005EBC202167C03EBC603023300EB4303C2
:102BB000B3F80034C3F30903621C02EB820255F838
:102BC00032209A4240F25281671C07EB8707D21AE3
:102BD00045F83720621C02EB820255F83220002AA9
:102BE00040F04B813146284604F040F8BCE630F80E
:102BF000243023F070031B051B0D43F0800320F8E5
:102C0000243004EB8401C90001F5A87105EB01082B
:102C100004EB840305EBC30393F85C31002B42D132
:102C20002868B0F850309BB204EB840205EBC20276
:102C300092F8502103EBC203063300EB4303B3F8D1
:102C40000074C7F3090717BB04EB840305EBC30348
:102C5000D3F86C213A44C3F86C21D3F864213A4488
:102C6000C3F86421D3F868313BB104EB840305EB6E
:102C7000C303D3F860319F4275D204EB840305EBA4
:102C8000C30393F85011284603F0E4FF5EE704EB1A
:102C9000840105EBC1013B46B1F85621D1F864111E
:102CA00002F0ABF9D0E704EB840305EBC30393F820
:102CB0005331022B35D0296804EB840205EBC202A4
:102CC00092F8500131F820309BB223F4E04323F016
:102CD000700343F4004343F0C00321F82030286818
:102CE00092F8502130F8223013F4804F20D0B0F801
:102CF00050309BB203EBC203023300EB4303B3F843
:102D00000074C7F30907002F9ED004EB840105EB84
:102D1000C1013B46B1F85821D1F8641102F06DF9B8
:102D200092E7324641462846FFF7EEFA07468BE720
:102D3000B0F850309BB203EBC203063300EB430301
:102D4000B3F80074C7F30907002F3FF47DAF04EB1D
:102D5000840105EBC1013B46B1F85A21D1F8641159
:102D600002F04BF970E74146286801F05FFDEDE69F
:102D7000631C03EB8303DB000022EA5004EB8403B3
:102D800005EBC3031B7F1BB316F0400F3BD004EBD6
:102D9000840305EBC3035B7C1BBB2B68B3F850209B
:102DA00092B2134404EB840205EBC202127C03EBE3
:102DB0000213B3F80424C2F30902A3F80424B3F8FD
:102DC00004246FEA42426FEA524292B2A3F804240A
:102DD00004EB840405EBC404217C284603F046FF81
:102DE000C2E5012BF4D12B68B3F8502092B2134402
:102DF00004EB840205EBC202127C03EB02130022F7
:102E0000A3F80424E4E72B6804EB840205EBC20278
:102E1000527CD2B9B3F8502092B2134404EB84022E
:102E200005EBC202127C03EB0213B3F80C24C2F3CD
:102E30000902A3F80C24B3F80C246FEA42426FEAAB
:102E4000524292B2A3F80C24C2E7012AC0D1B3F8CF
:102E5000502092B2134404EB840205EBC202127CB0
:102E600003EB02130022A3F80C24B1E7621C02EB6F
:102E70008202D2000027AF50ACE604EB840205EBDF
:102E8000C202566A1E445662013404EB840205EB0A
:102E9000C202526804EB840405EBC404134463606B
:102EA00001F0C4FC60E532462846FFF748FB5BE5CD
:102EB0000020BDE8F08190F89032012B0CD010B5C5
:102EC0000446012380F890324173006801F08BFCC6
:102ED000002084F8900210BD0220704710B584B025
:102EE0000446006801F089FC10F4004F20D110F472
:102EF000806F21D110F4804F2FD110F4005F37D1B3
:102F000010F4805F3ED110F4006F40F0878010F421
:102F1000007F40F0AE8010F4807F27D02268B2F8A6
:102F200044309BB223F480739BB2A2F844301DE07E
:102F30002046FFF716FD19E02268B2F844309BB234
:102F400023F480639BB2A2F84430204603F09FFE36
:102F500000212046FFF7AFFF08E02268B2F84430B6
:102F60009BB223F480439BB2A2F8443004B010BD5E
:102F70002268B2F844309BB223F400539BB2A2F80B
:102F80004430F3E72268B2F840309BB223F00403E8
:102F90009BB2A2F840302268B2F840309BB223F0D6
:102FA00008039BB2A2F84030204603F093FE22684B
:102FB000B2F844309BB223F480539BB2A2F8443061
:102FC000D4E7226832F8231004AA02EB430222F865
:102FD000101C0133DBB2072BF3D92268B2F8403062
:102FE0009BB243F00103A2F840302268B2F84030AF
:102FF0009BB223F001039BB2A2F840302368B3F8E0
:10300000442012F4806FF9D0B3F8442092B222F435
:10301000806292B2A3F8442000230BE00023DAE799
:10302000226804A901EB430131F8101C22F8231097
:103030000133DBB2072BF3D92268B2F840309BB2E0
:1030400043F00803A2F840302268B2F844309BB243
:1030500023F400639BB2A2F844302268B2F84030F7
:103060009BB243F00403A2F84030204603F022FE56
:103070007CE72268B2F844309BB223F400739BB221
:10308000A2F84430204603F0FCFD6FE710B504467B
:10309000084611F0800F26D101F0070C0CEB8C0EC6
:1030A0004FEACE0E0EF5A87E04EB0E010CEB8C0C55
:1030B00004EBCC0C4FF0000E8CF851E100F007004F
:1030C00008700A61CB70022B1DD094F89032012B4E
:1030D0001CD0012384F89032206801F03EF80020D3
:1030E00084F8900210BD01F0070C0CEB8C01C900B4
:1030F000103121440CEB8C0C04EBCC0C4FF0010E86
:103100008CF811E0DAE700230B71DEE70220E9E733
:1031100010B504460A4611F0800F1FD101F00700D8
:1031200000EB8003DB0003F5A873E11800EB8000DF
:1031300004EBC000002380F8513102F007020A704E
:1031400094F89032012B17D0012384F89032206834
:1031500001F0E8F9002084F8900210BD01F00700AA
:1031600000EB8003DB001033E11800EB800004EB80
:10317000C00001234374E0E70220EEE710B501F040
:10318000070C0CEB8C01C90001F5A8710CEB8C0E3F
:1031900000EBCE0ECEF86421CEF868310024CEF8D4
:1031A0006C418EF851418EF850C10144006801F025
:1031B0003DFB204610BD01F0070101EB810100EB52
:1031C000C100D0F86C01704738B501F0070C0CEB6A
:1031D0008C01C90010310CEB8C0E00EBCE0ECEF83A
:1031E00024200CF1010202EB820440F83430012566
:1031F0008EF83450CEF8303000EBC4020024546016
:103200008EF811508EF810C00144006801F00EFBDA
:10321000204638BD38B501F007050279AA4235D3FA
:1032200004460B4611F0800F1ED101EB8101C9004D
:1032300001F5A871014403EB830300EBC3030022F3
:1032400083F8512101238B700D7094F89032012B7B
:103250001ED0012384F89032206801F04EFA7DB12F
:10326000002084F8900238BD05EB8501C9001031BB
:10327000014405EB850300EBC30301225A74E1E727
:1032800004F52671206801F0BCFAE9E70120EAE7BD
:103290000220E8E70B46017903F00F02914234D394
:1032A00010B5044613F0800F21D103F0070202EBA2
:1032B0008201C90001F5A871014402EB820200EB12
:1032C000C202002082F8510100228A7003F0070335
:1032D0000B7094F89032012B19D0012384F89032AE
:1032E000206801F02FFA002084F8900210BD03F04E
:1032F000070202EB8201C9001031014402EB820295
:1033000000EBC20201205074DEE70120704702206A
:10331000ECE711F0800F0BD001F0070101EB810108
:10332000C9001031084452B90273C38000207047AD
:1033300001EB8101C90001F5A8710844F3E70122FE
:10334000027303811B0C4381F0E7000082B0084B3D
:103350001B68084AA2FB03235B0A00FB03F30193EB
:1033600000BF019B5A1E0192002BF9D102B0704799
:1033700000000020D34D6210002800F0F18170B5EC
:1033800082B00446036813F0010F2CD0994B5B68A0
:1033900003F00C03042B1DD0964B5B6803F00C0369
:1033A000082B12D06368B3F5803F41D0002B55D174
:1033B00003F1804303F504331A6822F480321A6063
:1033C0001A6822F480221A6037E08A4B5B6813F493
:1033D000803FE7D0874B1B6813F4003F03D063683E
:1033E000002B00F0BF81236813F0020F75D0814BD2
:1033F0005B6813F00C0F5FD07E4B5B6803F00C032F
:10340000082B54D02369002B00F08A807A4B0122CC
:103410001A60FEF7D5F90546764B1B6813F0020FCC
:1034200075D1FEF7CDF9401B0228F5D903209EE1A6
:10343000704A136843F480331360636843B3FEF744
:10344000BFF905466B4B1B6813F4003FCBD1FEF769
:10345000B7F9401B6428F5D9032088E1B3F5A02F04
:1034600009D0644B1A6822F480321A601A6822F478
:1034700080221A60E1E703F18043A3F53C331A6828
:1034800042F480221A601A6842F480321A60D4E74B
:10349000FEF796F90546574B1B6813F4003FA2D080
:1034A000FEF78EF9401B6428F5D903205FE1514BEC
:1034B0005B6813F4803FA5D14E4B1B6813F0020FDD
:1034C00003D02369012B40F04F814A4A136823F04F
:1034D000F803616943EAC1031360236813F0080F1E
:1034E00033D0A369002B5CD0434B0122C3F8802466
:1034F000FEF766F905463F4B5B6A13F0020F21D1D8
:10350000FEF75EF9401B0228F5D903202FE1394A66
:10351000136823F0F803616943EAC1031360DCE731
:10352000354B00221A60FEF74BF90546314B1B68FC
:1035300013F0020FD1D0FEF743F9401B0228F5D952
:10354000032014E10120FFF701FF236813F0040FAB
:1035500000F09680274BDB6913F0805F34D1254B58
:10356000DA6942F08052DA61DB6903F0805301933B
:10357000019B0125214B1B6813F4807F26D0E36853
:10358000012B3DD0002B53D103F1804303F50433CD
:103590001A6A22F001021A621A6A22F004021A62FE
:1035A00033E0154B0022C3F88024FEF709F90546E5
:1035B000104B5B6A13F0020FC7D0FEF701F9401BF6
:1035C0000228F5D90320D2E00025D3E70B4A13687F
:1035D00043F480731360FEF7F3F80646074B1B684D
:1035E00013F4807FCBD1FEF7EBF8801B6428F5D96C
:1035F0000320BCE000100240000042420070004086
:103600005F4A136A43F001031362E36833B3FEF7C2
:10361000D7F806465A4B1B6A13F0020F2FD1FEF75C
:10362000CFF8801B41F288339842F3D903209EE003
:10363000052B09D0524B1A6A22F001021A621A6A4B
:1036400022F004021A62E0E74D4B1A6A42F00402CB
:103650001A621A6A42F001021A62D6E7FEF7B0F85F
:103660000646474B1B6A13F0020F08D0FEF7A8F876
:10367000801B41F288339842F3D9032077E0E5B903
:10368000E369002B72D03E4A526802F00C02082A0D
:1036900056D0022B17D03B4B00221A66FEF790F84B
:1036A0000446374B1B6813F0007F47D0FEF788F8BD
:1036B000001B0228F5D9032059E0314AD36923F0D1
:1036C0008053D361DCE72F4B00221A66FEF778F8AF
:1036D00005462B4B1B6813F0007F06D0FEF770F8F1
:1036E000401B0228F5D9032041E0236AB3F5803F4F
:1036F0001AD023494B6823F47413226A606A024388
:1037000013434B601F4B01221A66FEF759F804461B
:103710001B4B1B6813F0007F0ED1FEF751F8001B06
:103720000228F5D9032022E0154A536823F4003318
:10373000A1680B435360DCE7002018E0002016E08E
:10374000012B16D00E4B5B6803F48031226A914244
:1037500011D103F47013626A93420ED1002006E087
:1037600001207047012002E0012000E0002002B0AB
:1037700070BD0120FBE70120F9E70120F7E700BF5A
:1037800000100240000042420F4B5B6803F00C0245
:10379000082A01D00D487047C3F383420C49885C66
:1037A00013F4803F0BD0084B5B68C3F34043094AD6
:1037B000D35C064A02FB00F0B0FBF3F07047064B07
:1037C00003FB00F0704700BF0010024000127A00B7
:1037D000CCD80008C8D8000800093D00002800F037
:1037E000A08070B50D460446524B1B6803F00703DA
:1037F0008B420BD24F4A136823F007030B4313602D
:10380000136803F007038B4240F08D80236813F0A8
:10381000020F17D013F0040F04D0474A536843F443
:10382000E0635360236813F0080F04D0424A5368E2
:1038300043F460535360404A536823F0F003A16897
:103840000B435360236813F0010F31D06368012BE1
:1038500020D0022B25D0384A126812F0020F64D013
:1038600035494A6822F0030213434B60FDF7A8FF75
:103870000646314B5B6803F00C036268B3EB820FC2
:1038800016D0FDF79DFF801B41F288339842F0D996
:10389000032045E0284A126812F4003FE0D10120DD
:1038A0003EE0254A126812F0007FD9D1012037E0AE
:1038B000204B1B6803F00703AB420AD91D4A13686B
:1038C00023F007032B431360136803F00703AB4295
:1038D0002DD1236813F0040F06D0174A536823F440
:1038E000E063E1680B435360236813F0080F07D0CF
:1038F000114A536823F46053216943EAC1035360BA
:10390000FFF742FF0C4B5B68C3F303130B4AD35C16
:10391000D8400B4B18600B4B1868FDF72FFE0020AA
:1039200070BD012070470120FAE70120F8E701206F
:10393000F6E700BF0020024000100240B8D800089F
:103940000000002008000020014B1868704700BFED
:103950000000002008B5FFF7F7FF044B5B68C3F3D6
:103960000223034AD35CD84008BD00BF00100240C8
:10397000B0D800080F2303600B4B5A6802F0030213
:1039800042605A6802F0F00282605A6802F4E06213
:10399000C2605B68DB0803F4E0630361034B1B68F0
:1039A00003F007030B607047001002400020024044
:1039B00070B582B00446036813F0010F36D03F4B58
:1039C000DB6913F0805F49D13C4BDA6942F08052E9
:1039D000DA61DB6903F080530193019B0125384BC9
:1039E0001B6813F4807F3BD0344B1B6A13F4407385
:1039F00013D0626802F440729A420ED02F4A136AC2
:103A000023F440702F490126C1F840640026C1F814
:103A10004064106213F0010F36D1284A136A23F470
:103A2000407361680B431362002D3ED1236813F08D
:103A3000020F06D0214A536823F44043A1680B4388
:103A40005360236813F0100F34D01C4A536823F4DA
:103A50008003E1680B43536000202CE00025BEE7A3
:103A6000174A136843F480731360FDF7A9FE0646F6
:103A7000134B1B6813F4807FB6D1FDF7A1FE801BAA
:103A80006428F5D9032016E0FDF79AFE06460B4B95
:103A90001B6A13F0020FC0D1FDF792FE801B41F2AA
:103AA00088339842F3D9032005E0D36923F080538B
:103AB000D361BBE7002002B070BD00BF0010024020
:103AC00000700040000042422DE9F04782B00546F8
:103AD000884617461E46FDF773FE0A9B1B1A03EB2A
:103AE0000609FDF76DFE8246284B1B68C3F3CB33F6
:103AF00009FB03F301932B689C6838EA04040CBFAC
:103B000001230023BB423DD0B6F1FF3FF3D0FDF7C8
:103B100057FEA0EB0A00484507D2019A02B14A4677
:103B2000019B013B01939146E5E72A68536823F026
:103B3000E00353606B68B3F5827F0BD0AB6AB3F5DB
:103B4000005F14D0012385F85130002385F85030F0
:103B5000032018E0AB68B3F5004F02D0B3F5806FD7
:103B6000ECD12A68136823F040031360E6E72A6863
:103B7000136823F4005313602A68136843F4005356
:103B80001360DFE7002002B0BDE8F08700000020EE
:103B900070B582B006460C46154600920B460122CF
:103BA0000221FFF791FF48B90095234600228021AA
:103BB0003046FFF789FF38B902B070BD736D43F02E
:103BC000200373650320F7E7736D43F020037365EB
:103BD0000320F1E7002856D010B50446436A33B9F4
:103BE0004368B3F5827F05D00023C36102E0002360
:103BF000036143610023A36294F85130002B3CD051
:103C0000022384F851302268136823F040031360C4
:103C1000636803F48273A26802F404421343E26807
:103C200002F400621343226902F002021343626944
:103C300002F001021343A26902F400721343E26925
:103C400002F038021343226A02F080021343A26A90
:103C500002F40052216813430B60638B226803F067
:103C6000040353602268D36923F40063D361002006
:103C70006065012384F8513010BD84F8503020462F
:103C8000FDF720FCBCE7012070472DE9F04383B02D
:103C90000446894690461D46FDF792FD94F8516012
:103CA000F6B2012E40F0CC800746B9F1000F00F0CB
:103CB000C880B8F1000F00F0C48094F85030012B98
:103CC00000F0C380012384F85030032384F851307E
:103CD00000236365C4F83090A4F83480A4F83680DB
:103CE000A363A387E38763642364A368B3F5004FEA
:103CF0001ED023681A6812F0400F03D11A6842F0F0
:103D000040021A60E368B3F5006F1CD0636813B11A
:103D1000B8F1010F5FD1226B236812781A73236BFD
:103D200001332363E38E9BB2013B9BB2E38652E0F7
:103D30002268136823F0400313602268136843F479
:103D400080431360D5E7636813B1B8F1010F15D153
:103D5000226B23681288DA60236B02332363E38EBD
:103D60009BB2013B9BB2E38608E0FDF729FDC01B37
:103D7000A84202D3B5F1FF3F15D1A5B1E38E9BB2A6
:103D8000002B42D023689A6812F0020FEDD0226B0C
:103D90001288DA60236B02332363E38E9BB2013B0C
:103DA0009BB2E386EAE7012384F85130002384F8CC
:103DB0005030032645E0226B12781A73236B0133CF
:103DC0002363B4F836C01FFA8CFC0CF1FF3C1FFAD9
:103DD0008CFCA4F836C0E38E9BB2B3B123689A681A
:103DE00012F0020FE7D1FDF7EBFCC01BA84202D393
:103DF000B5F1FF3F01D1002DEDD1012384F8513001
:103E0000002384F8503003261BE03A46294620461A
:103E1000FFF7BEFE08B120236365A36833B90193A1
:103E20002368DA6801929B680193019B012384F85F
:103E30005130002384F85030636D13B9002600E040
:103E40000226304603B0BDE8F0830226F9E770474A
:103E500090F83D30DBB2012B27D1022380F83D30B2
:103E60000268D36843F00103D3600368114A9342A8
:103E700010D0B3F1804F0DD0A2F59432934209D007
:103E800002F58062934205D01A6842F001021A607E
:103E9000002070479A6802F00702062A07D01A68C5
:103EA00042F001021A600020704701207047002094
:103EB000704700BF002C0140704770477047704743
:103EC00070B504460368DE681D6915F0020F10D056
:103ED00016F0020F0DD06FF002021A610123037772
:103EE00003689B6913F0030F5ED0FFF7E6FF002322
:103EF000237715F0040F12D016F0040F0FD02368AB
:103F00006FF004021A610223237723689B6913F47C
:103F1000407F4FD02046FFF7D0FF0023237715F0D6
:103F2000080F12D016F0080F0FD023686FF00802A8
:103F30001A61042323772368DB6913F0030F40D051
:103F40002046FFF7BAFF0023237715F0100F12D099
:103F500016F0100F0FD023686FF010021A610823BB
:103F600023772368DB6913F4407F31D02046FFF7C5
:103F7000A4FF0023237715F0010F02D016F0010FE4
:103F80002DD115F0800F02D016F0800F2FD115F033
:103F9000400F02D016F0400F31D115F0200F02D0A3
:103FA00016F0200F33D170BDFFF786FF2046FFF7D4
:103FB00085FF9CE72046FFF77FFF2046FFF77EFF47
:103FC000ABE72046FFF778FF2046FFF777FFBAE719
:103FD0002046FFF771FF2046FFF770FFC9E723680F
:103FE0006FF001021A612046FDF7E8F9C9E723687E
:103FF0006FF080021A61204600F081F8C7E723685D
:104000006FF040021A612046FFF759FFC5E72368A9
:104010006FF020021A61204600F070F8C3E700003C
:1040200003681F4A90420AD0B0F1804F07D0A2F532
:104030009432904203D002F58062904203D123F083
:1040400070034A681343164A90420AD0B0F1804F79
:1040500007D0A2F59432904203D002F580629042DC
:1040600003D123F44073CA68134323F080034A69E1
:10407000134303608B68C3620B688362084B9842EA
:104080000AD001234361036913F0010F03D00369D0
:1040900023F00103036170470B690363F1E700BF7D
:1040A000002C014040B310B5044690F83D30F3B108
:1040B000022384F83D30214651F8040BFFF7B0FF8E
:1040C000012384F8463084F83E3084F83F3084F889
:1040D000403084F8413084F8423084F8433084F82A
:1040E000443084F8453084F83D30002010BD80F81D
:1040F0003C30FFF7ACFEDBE70120704770477047AC
:1041000084B004A800E90E00002004B07047034604
:104110000020A3F844004FF43F42A3F8402070472A
:10412000B0F8403023F47C535B045B0CA0F84030C3
:10413000002070470020704784B0844604A800E93E
:104140000E000123ACF840300020ACF84000ACF881
:104150004400ACF8500004B0704710B5034691F825
:1041600000C030F82C2092B222F4EC4222F070020F
:1041700092B2C878032861D8DFE800F0555C025895
:10418000002048F2800E42EA0E0223F82C2091F81B
:1041900000C033F82C2092B222F4E04222F07002E8
:1041A00042EA0C0242EA0E0223F82C200A7B002A83
:1041B00040F0DC804A78002A51D0B3F8502092B207
:1041C0001A440C7802EB0412B1F806C04FEA5C0CFA
:1041D0004FEA4C0CA2F800C40C7833F8242012F0FB
:1041E000400F0CD033F8242092B222F4E04222F0A7
:1041F000700242F4004242F0C00223F82420CA7840
:10420000012A1DD0097833F8212092B222F4E0422D
:1042100022F0400282F0200242F4004242F080028A
:1042200023F8212017E142F40072AAE742F4C062A9
:104230000020A6E742F480620020A2E70120A0E768
:10424000097833F8212092B222F4E04222F04002B1
:1042500042F4004242F0800223F82120FBE0B3F850
:10426000502092B21A440C7802EB0412B1F806C046
:104270004FEA5C0C4FEA4C0CA2F808C4B3F850208B
:1042800092B21A440C7802EB0412B2F80CC4CCF3CC
:10429000090CA2F80CC40C693E2C39D94FEA541E03
:1042A00014F01F0F01D10EF1FF3EB2F80CC41FFA3B
:1042B0008CFC4FEA8E2E1FFA8EFE4CEA0E0C4CF44C
:1042C000004CA2F80CC40C7833F8242012F4804F70
:1042D0000CD033F8242092B222F4E04222F0700293
:1042E00042F4404242F0800223F82420097869BB5E
:1042F00033F8212092B222F4804222F0700282F43C
:10430000405242F4004242F0800223F82120A2E011
:104310004CB9B2F80C446FEA44446FEA5444A4B276
:10432000A2F80C44CFE74FEA540C14F0010F01D06F
:104330000CF1010CB2F80C44A4B24FEA8C2C1FFA19
:104340008CFC44EA0C04A2F80C44BCE733F82120AE
:1043500092B222F4804222F0700282F4005242F4BF
:10436000004242F0800223F8212074E0CA78022A39
:1043700072D00C7833F8242092B222F4E24222F078
:10438000700242F4004242F0800223F82420B3F885
:10439000502092B21A4491F800C002EB0C12B1F80E
:1043A00008C04FEA5C0C4FEA4C0CA2F800C4B3F80A
:1043B000502092B21A4491F800C002EB0C12B1F8EE
:1043C0000AC04FEA5C0C4FEA4C0CA2F808C44A78C9
:1043D000002A50D10C7833F8242012F4804F0CD0EE
:1043E00033F8242092B222F4E04222F0700242F428
:1043F000404242F0800223F824200C7833F8242035
:1044000012F0400F0CD033F8242092B222F4E04294
:1044100022F0700242F4004242F0C00223F824204D
:1044200091F800C033F82C2092B222F4804222F09E
:10443000700282F4405248F28004224323F82C2078
:10444000097833F8212092B222F4E04222F04002AF
:10445000224323F8212010BD0C7833F8242092B297
:1044600022F4E04222F0700242F4014242F0800263
:1044700023F824208BE70C7833F8242012F4804FA3
:104480000CD033F8242092B222F4E04222F07002E1
:1044900042F4404242F0800223F824200C7833F8A2
:1044A000242012F0400F0CD033F8242092B222F4D2
:1044B000E04222F0700242F4004242F0C00223F8CF
:1044C0002420CA78012A1ED00C7833F8242092B216
:1044D00022F4E04222F0400282F0200242F4004244
:1044E00042F0800223F82420097833F8212092B288
:1044F00022F4804222F0700242F4004242F0800234
:1045000023F82120A7E70C7833F8242092B222F474
:10451000E04222F0400242F4004242F0800223F8DE
:104520002420E1E70B7B002B46D14B7813B30A78AC
:1045300030F8223013F0400F0CD030F822309BB20C
:1045400023F4E04323F0700343F4004343F0C0033B
:1045500020F822300A7830F822309BB223F4E0436E
:1045600023F0400343F4004343F0800320F822305B
:10457000002070470A7830F8223013F4804F0CD0B6
:1045800030F822309BB223F4E04323F0700343F46D
:10459000404343F0800320F822300A7830F822307C
:1045A0009BB223F4804323F0700343F4004343F0B1
:1045B000800320F82230DBE74B78002B4ED10A78BD
:1045C00030F8223013F4804F0CD030F822309BB2F8
:1045D00023F4E04323F0700343F4404343F08003AB
:1045E00020F822300A7830F8223013F0400F0CD037
:1045F00030F822309BB223F4E04323F0700343F4FD
:10460000004343F0C00320F822300A7830F822300B
:104610009BB223F4E04323F0700343F4004343F0E0
:10462000C00320F822300A7830F822309BB223F4FD
:10463000804323F0700348F2800C43EA0C0320F817
:1046400022300A7830F822309BB223F4E04323F082
:10465000400343EA0C0320F8223089E70A7830F857
:10466000223013F4804F0CD030F822309BB223F468
:10467000E04323F0700343F4404343F0800320F809
:1046800022300A7830F8223013F0400F0CD030F886
:1046900022309BB223F4E04323F0700343F4004341
:1046A00043F0C00320F822300A7830F822309BB261
:1046B00023F4E04323F0700343F4404343F08003CA
:1046C00020F822300A7830F822309BB223F4E043FD
:1046D00023F0400348F2800C43EA0C0320F8223018
:1046E0000A7830F822309BB223F4804323F0700321
:1046F00043EA0C0320F822303AE74B788BB10A7872
:1047000030F822309BB223F4E04323F0400383F0DF
:10471000100343F4004343F0800320F822300020CC
:1047200070470A7830F822309BB223F4804323F09C
:10473000700383F4805343F4004343F0800320F874
:104740002230ECE70B7B002B4BD14B7833B30A784C
:1047500030F8223013F0400F0CD030F822309BB2EA
:1047600023F4E04323F0700343F4004343F0C00319
:1047700020F82230CB78012B33D00A7830F8223061
:104780009BB223F4E04323F0400383F0200343F47F
:10479000004343F0800320F8223022E00A7830F80A
:1047A000223013F4804F0CD030F822309BB223F427
:1047B000E04323F0700343F4404343F0800320F8C8
:1047C00022300A7830F822309BB223F4804323F061
:1047D000700383F4405343F4004343F0800320F814
:1047E00022300020704711B98023A0F84C300020FF
:1047F00070470020704700207047B0F8440080B236
:1048000070470020704701335B0800EB420000F561
:10481000806008E00A7891F801C042EA0C2220F892
:10482000042B0231013B002BF4D1704770B50546D3
:104830000C464A78012A3BD00B7B002B40F0A68225
:104840008B690A69934240F284829B1A8B61B5F8A6
:1048500050309BB22B44217803EB0113B3F80C14B6
:10486000C1F30901A3F80C143E2A40F276825109E3
:1048700012F01F0F00D10139B3F80C2492B2890253
:1048800089B20A4342F40042A3F80C24227835F896
:1048900022309BB223F4804323F0700383F440530F
:1048A00043F4004343F0800325F82230002070BD1C
:1048B0008E6909698E4200D90E46237B73B3E37873
:1048C000022B4DD0236A9B1B2362217835F82130BF
:1048D00013F0400F00F0F581002A40F0E281B5F8B6
:1048E00050309BB22B4403EB0113B3F80C24C2F3FA
:1048F0000902A3F80C243E2E40F2BA81710916F089
:104900001F0F00D10139B3F80C2492B2890289B289
:104910000A4342F40042A3F80C24CBE1B6B233467A
:10492000E28861692846FFF76EFFB5F850309BB208
:104930002B44227803EB0213A3F80464227835F8A1
:1049400022309BB223F4E04323F0400383F0300392
:1049500043F4004343F0800325F822300020A6E70B
:10496000236A994280F06681227835F822309BB222
:1049700023F4E04323F0700343F4014343F0800346
:1049800025F82230236A9B1B2362227835F82230D7
:1049900013F0400F00F0A7806378B3BBB5F8503038
:1049A0009BB22B4403EB0213B3F80C24C2F30902AD
:1049B000A3F80C243E2E0FD9710916F01F0F00D159
:1049C0000139B3F80C2492B2890289B20A4342F445
:1049D0000042A3F80C241AE04EB9B3F80C246FEA95
:1049E00042426FEA524292B2A3F80C240FE07208DE
:1049F00016F0010F00D00132B3F80C1489B2920204
:104A000092B20A43A3F80C2401E0012B30D0B3B2D8
:104A1000628961692846FFF7F6FE63693344636182
:104A2000236A226993422DD99B1B23626378002B52
:104A300045D1B5F850309BB22B44227803EB0213DA
:104A4000B3F80424C2F30902A3F804243E2E1DD9AE
:104A5000710916F01F0F00D10139B3F8042492B286
:104A6000890289B20A4342F40042A3F8042428E0F0
:104A7000B5F850309BB22B4403EB0213B2B2A3F84B
:104A80000C24C4E7002222621E46CFE74EB9B3F8D9
:104A900004246FEA42426FEA524292B2A3F804241D
:104AA0000FE0720816F0010F00D00132B3F80414C1
:104AB00089B2920292B20A43A3F8042401E0012BC6
:104AC00006D0B3B2228961692846FFF79CFE35E71C
:104AD000B5F850309BB22B44227803EB0213B2B2EC
:104AE000A3F80424EDE76378B3BBB5F850309BB26C
:104AF0002B4403EB0213B3F80424C2F30902A3F816
:104B000004243E2E0FD9710916F01F0F00D1013970
:104B1000B3F8042492B2890289B20A4342F40042F3
:104B2000A3F804241AE04EB9B3F804246FEA424211
:104B30006FEA524292B2A3F804240FE0720816F012
:104B4000010F00D00132B3F8041489B2920292B27C
:104B50000A43A3F8042401E0012B30D0B3B2228928
:104B600061692846FFF74FFE636933446361236A36
:104B7000226993422DD99B1B23626378002B45D178
:104B8000B5F850309BB22B44227803EB0213B3F8F4
:104B90000C24C2F30902A3F80C243E2E1DD971097E
:104BA00016F01F0F00D10139B3F80C2492B289021C
:104BB00089B20A4342F40042A3F80C2428E0B5F875
:104BC00050309BB22B4403EB0213B2B2A3F804247F
:104BD000C4E7002222621E46CFE74EB9B3F80C2488
:104BE0006FEA42426FEA524292B2A3F80C240FE0FD
:104BF000720816F0010F00D00132B3F80C1489B21C
:104C0000920292B20A43A3F80C2401E0012B06D0D1
:104C1000B3B2628961692846FFF7F5FD8EE6B5F803
:104C200050309BB22B44227803EB0213B2B2A3F8AC
:104C30000C24EDE7217835F8212092B222F4E242EB
:104C400022F0700242F4004242F0800225F8212056
:104C5000B5F8502092B22A44217802EB01129BB29F
:104C6000A2F80434228961692846FFF7CCFD65E685
:104C70004EB9B3F80C246FEA42426FEA524292B244
:104C8000A3F80C2416E0720816F0010F00D00132D0
:104C9000B3F80C1489B2920292B20A43A3F80C241E
:104CA00008E0B5F850309BB22B4403EB0113B2B2CD
:104CB000A3F80C24B3B2628961692846FFF7A3FD0B
:104CC0003CE6B2BBB5F850309BB22B4403EB01136A
:104CD000B3F80424C2F30902A3F804243E2E0FD92A
:104CE000710916F01F0F00D10139B3F8042492B2F4
:104CF000890289B20A4342F40042A3F8042421E065
:104D00004EB9B3F804246FEA42426FEA524292B2BB
:104D1000A3F8042416E0720816F0010F00D0013247
:104D2000B3F8041489B2920292B20A43A3F804249D
:104D300008E0B5F850309BB22B4403EB0113B2B23C
:104D4000A3F80424B3B2228961692846FFF75BFD0A
:104D5000F4E500228A611A4679E54AB9B3F80C24D1
:104D60006FEA42426FEA524292B2A3F80C248DE5F8
:104D7000510812F0010F00D00131B3F80C2492B2A7
:104D8000890289B20A43A3F80C247FE5CB78022B71
:104D90004DD0012B40F02F8189692369994240F25F
:104DA000E680C91AA161F2B9B5F8502092B22A443E
:104DB000217802EB0112B2F80414C1F30901A2F840
:104DC00004143E2B40F2D780580913F01F0F00D176
:104DD0000138B2F8041489B2800280B2014341F470
:104DE0000041A2F804146278002A40F0F680B5F879
:104DF000502092B22A44217802EB0112B2F80C142E
:104E0000C1F30901A2F80C143E2B40F2CD805909E0
:104E100013F01F0F00D10139B2F80C349BB2890294
:104E200089B20B4343F40043A2F80C342EE5F2B9E7
:104E3000B0F850309BB203440A7803EB0213B3F886
:104E40000424C2F30902A3F804240A693E2A31D9D2
:104E5000510912F01F0F00D10139B3F8042492B2A6
:104E6000890289B20A4342F40042A3F80424637819
:104E7000002B51D1B5F850309BB22B44227803EB74
:104E80000213B3F80C24C2F30902A3F80C2422691C
:104E90003E2A28D9510912F01F0F00D10139B3F869
:104EA0000C2492B2890289B20A4342F40042A3F868
:104EB0000C2433E04AB9B3F804246FEA42426FEAA3
:104EC000524292B2A3F80424D1E7510812F0010F24
:104ED00000D00131B3F8042490B28A0292B20243A6
:104EE000A3F80424C3E74AB9B3F80C246FEA42429A
:104EF0006FEA524292B2A3F80C240FE0510812F06C
:104F0000010F00D00131B3F80C2490B28A0292B2A2
:104F10000243A3F80C2401E0012B1DD0E369002B10
:104F20003FF4B4AC227835F8221044F2400303EA8F
:104F300001008B4302D000287FF4A8AC35F8223062
:104F40009BB223F4E04323F0700343F4004343F0A7
:104F5000C00325F8223099E4B5F850309BB22B44B9
:104F6000227803EB0213228AA3F80C24D6E700234D
:104F7000A3610B4617E74BB9B2F804146FEA41413D
:104F80006FEA514189B2A2F804142CE7590813F0D2
:104F9000010F00D00131B2F8040480B2890289B255
:104FA0000143A2F804141EE74BB9B2F80C346FEABF
:104FB00043436FEA53439BB2A2F80C3466E45908AA
:104FC00013F0010F00D00131B2F80C3498B28B020B
:104FD0009BB20343A2F80C3458E4012A7FF456AC88
:104FE000B5F8502092B22A44217802EB01129BB20C
:104FF000A2F80C344AE4012059E410B45C0800EB38
:10500000420000F5806007E030F8042B0A70C2F31C
:1050100007224A700231013C002CF5D113F0010F38
:1050200001D003880B7010BC704710B5D0F8B8429F
:10503000D0F8BC325BB194F80002FF2807D09B681F
:1050400094F8012221469847FF2384F8003200207B
:1050500010BD00004323038000487047500000202B
:1050600043230380004870479400002043230380BB
:10507000004870470C0000200A2303800048704756
:105080001001002038B50446D0F8B85201F0C3FE34
:10509000C5F80C02D4F8B8324BB1D4F8BC32DB6896
:1050A00005F50371D5F804029847002038BD0220A9
:1050B000FCE710B5D0F8B822D0F8C042F2B101EB4D
:1050C000810300EB8303DB694BB101EB810C04EB43
:1050D000CC04246AB3FBF4FC04FB1C3323B100238F
:1050E000C2F81432002010BD01EB810300EB8303F2
:1050F0000022DA61134601F07EFEF3E70220F2E7B8
:10510000F0B583B006460C46D0F8B87200238DF88F
:105110000730ADF804300B7813F0600527D0202D50
:1051200053D1CA88DAB113F0800F0CD0D0F8BC325A
:105130009B68394660789847E2883946304600F0E7
:105140007FFD002544E04B7887F800328B7987F8A3
:105150000132CA88394600F088FD002538E0D0F8D1
:10516000BC329B68002248789847002530E04F7891
:105170000A2F10D00B2F1CD01FBB90F89C32032B92
:1051800003D000F051FA022522E0022201A900F02A
:1051900057FD3D461CE090F89C32032B03D000F0F5
:1051A00043FA022514E001220DF1070100F048FD49
:1051B0000EE090F89C32032B0AD000F035FA02255D
:1051C00006E000F031FA022502E000F02DFA022597
:1051D000284603B0F0BD38B50446812101F0D5FD65
:1051E0000025E5620121204601F0CFFDC4F86C5195
:1051F0008221204601F0C9FD2564D4F8B8324BB1B4
:10520000D4F8BC325B689847D4F8B80201F00EFEBF
:10521000C4F8B852002038BD70B50446037CABBB5F
:105220004FF400730222812101F0A4FD0125E56203
:105230004FF4007302222946204601F09BFDC4F87A
:105240006C51082303228221204601F093FD0123A3
:1052500023644FF4077001F0E5FD0546C4F8B80279
:1052600068B3D4F8BC321B6898470023C5F81432E1
:10527000C5F81832267CCEB94FF40073D5F8042255
:105280000121204601F0BFFD304670BD40230222BF
:10529000812101F06FFD0125E562402302222946AC
:1052A000204601F067FDC4F86C51CAE74023D5F8E9
:1052B00004220121204601F0A6FD0026E4E7012694
:1052C000E2E719B1C0F8BC12002070470220704715
:1052D000D0F8B832C3F80812C3F810220020704783
:1052E000D0F8B832C3F8041200207047D0F8B822C2
:1052F00092B108B5037C43B94FF40073D2F804228D
:10530000012101F080FD002008BD4023D2F80422D5
:10531000012101F078FDF6E70220704798B108B549
:105320000346D0F8B40210B10020C3F8B40209B1AA
:10533000C3F8B012012183F89C121A70184601F0CC
:10534000CFFC002008BD0220704719B1C0F8B4128C
:10535000002070470220704708B501F003FD0020CF
:1053600008BD08B5D0F8B4322BB11B68984700B916
:1053700008BD0220FCE70220FAE708B5D0F8B432F5
:105380005B689847002008BD38B5044600F52A75CB
:10539000284600F035F90123C4F89432B4F8AE324F
:1053A000C4F8983294F8A81201F01F03012B08D01A
:1053B000022B0BD07BB92946204600F0CFFA002003
:1053C00038BD2946204600F0FDFAF8E72946204678
:1053D00000F028FBF3E701F08001204601F0DDFC3E
:1053E000EDE738B504460D4691BB1346D0F894223C
:1053F000032A03D0052A24D0084633E0D0F86011F0
:10540000D0F8642191420DD9891AC0F860118A42FE
:1054100006D98AB21946204600F036FC284621E01B
:1054200092B2F7E7D0F8B4321B691BB190F89C2216
:10543000032A04D0204600F02FFC284612E09847AB
:10544000F8E70021C0F8941201F0A7FC284609E013
:10545000D0F8B4329B6933B190F89C22032A04D16E
:105460009847002038BD0220FCE70220FAE738B553
:1054700004460D46002953D11346D0F89422022A3F
:105480000CD0042A00D01AB98021204601F085FCF6
:1054900094F8A032012B3ED0284638BD026A416AFA
:1054A0008A421BD8C269B2FBF1F301FB13232BB96B
:1054B000914203D8D0F898329A421CD3D4F8B4322F
:1054C000DB681BB194F89C22032A21D0802120465E
:1054D00001F063FC204600F0EAFBD9E7521A0262B1
:1054E00092B2194600F0B9FB00231A46194620462D
:1054F00001F089FCCCE70022114600F0AEFB002150
:10550000C4F898120B460A46204601F07CFCBFE71F
:1055100020469847DAE7002384F8A0322846BCE703
:10552000D0F8B4325B6933B190F89C22032A04D1DD
:1055300098470020B1E70220AFE70220ADE770B541
:10554000044640230022114601F014FC0125C4F852
:1055500058514026C4F86461334600228021204619
:1055600001F008FCA561666284F89C520023C4F82F
:1055700094326360C4F8A432D4F8B8322BB1D4F8B2
:10558000B4325B68002120469847002070BD01744A
:105590000020704790F89C3280F89D32042380F8F8
:1055A0009C320020704790F89C32042B01D00020E0
:1055B000704790F89D3280F89C32F8E708B590F873
:1055C0009C32032B01D0002008BDD0F8B432DB6937
:1055D000002BF8D09847F6E70346002002E00130A0
:1055E000C0B201331A78002AF9D1704708B54B8848
:1055F000012B00D008BDC0F8A43200F04DFBF9E744
:105600000B7803704B7843708B78CA7803EB0223D6
:1056100043800B794A7903EB022383808B79CA7923
:1056200003EB0223C380704710B50446802101F0CC
:10563000B4FB0021204601F0B0FB10BD30B583B0B3
:1056400005460C460023ADF806304A88130A013B94
:10565000062B00F2A480DFE803F004182CA2A28637
:105660009300D0F8B0321B680DF10601007C98471A
:10567000BDF806201AB1E388002B40F09480E3883F
:10568000002B00F09A8003B030BD037C43B9D0F802
:10569000B4329B6A0DF10600984702234370E7E796
:1056A000D0F8B432DB6A0DF106009847022343704C
:1056B000DEE7D2B2052A52D8DFE802F003101D2A35
:1056C0003744D0F8B0325B6823B10DF10601007C9D
:1056D0009847CDE72146FFF7A7FFD4E7D0F8B032CF
:1056E0009B6823B10DF10601007C9847C0E7214675
:1056F000FFF79AFFC7E7D0F8B032DB6823B10DF1AE
:105700000601007C9847B3E72146FFF78DFFBAE713
:10571000D0F8B0321B6923B10DF10601007C984727
:10572000A6E72146FFF780FFADE7D0F8B0325B690E
:1057300023B10DF10601007C984799E72146FFF758
:1057400073FFA0E7D0F8B0329B6923B10DF10601D9
:10575000007C98478CE72146FFF766FF93E72146D8
:10576000FFF762FF8FE7037C33B9D0F8B4325B6B8D
:105770000DF1060098477BE72146FFF755FF82E7CA
:10578000037C43B9D0F8B4321B6B0DF10600984787
:10579000072343706CE72146FFF746FF73E7214676
:1057A000FFF742FF6FE79A4228BF1A46ADF806207E
:1057B0000146284600F044FA61E7284600F06CFAFA
:1057C00061E738B504468B88F3B9CB88E3B94B88D9
:1057D0007F2B19D803F07F0590F89C32032B0CD057
:1057E00080F89E52294601F0FEFA204600F054FA55
:1057F00035B1022384F89C3209E0FFF715FF06E07B
:10580000012384F89C3202E02046FFF70DFF38BDEB
:1058100038B504460D468978284B197001290ED8F1
:1058200090F89C32022B0ED0032B21D02946FFF793
:10583000FBFE224B19782046FFF79FFD02E0294628
:10584000FFF7F2FE38BD81B14160032380F89C323E
:10585000FFF787FD022803D0204600F01DFAF1E78C
:1058600029462046FFF7E0FEECE700F015FAE9E7ED
:1058700089B1436899421DD0D9B2FFF77EFD0F4B25
:10588000197861602046FFF76CFD02280DD0204694
:1058900000F002FAD6E7022380F89C324160FFF75D
:1058A0006CFD204600F0F8F9CCE729462046FFF7CA
:1058B000BBFEC7E700F0F0F9C4E700BF14100020FA
:1058C00008B5CB88012B0AD190F89C32022B09D95C
:1058D000032B11D10122011D00F0B2F901E0FFF705
:1058E000A3FE08BD5BB23BB10146002341F8083F6F
:1058F000012200F0A5F9F4E7FFF796FEF1E708B5FD
:1059000090F89C32013B022B12D8CB88022B0CD191
:105910000123C360D0F8A4320BB10323C360022279
:1059200000F10C0100F08CF908BDFFF77DFEFBE7EC
:10593000FFF77AFEF8E708B590F89C32013B022B9E
:1059400009D84B88012B00D008BD0023C0F8A43231
:1059500000F0A2F9F8E7FFF767FEF5E708B50B7866
:1059600003F06003202B05D0402B03D043B1FFF799
:105970005BFE03E0D0F8B4329B689847002008BD76
:105980004B78092B1BD8DFE803F011171A141A08FB
:10599000051A0E0BFFF752FEF0E7FFF712FFEDE7D7
:1059A000FFF736FFEAE7FFF78BFFE7E7FFF7A7FF11
:1059B000E4E7FFF71BFEE1E7FFF7BDFFDEE7FFF7D8
:1059C00033FEDBE738B505460C460B7803F0600381
:1059D000202B06D0402B04D01BB1FFF725FE002062
:1059E00038BD95F89C32013B022B16D82379012B48
:1059F0000ED8D5F8B4329B68214628469847E388EC
:105A0000002BECD10028EAD1284600F045F9E6E762
:105A100021462846FFF708FEE1E721462846FFF722
:105A200003FEDCE770B505468B880C7804F0600453
:105A3000202C07D0DAB2402C04D05CB1FFF7F4FD83
:105A4000002405E0D5F8B4329B6828469847002426
:105A5000204670BD202C09D04E78012E33D0032E65
:105A60000AD0002E55D0FFF7DFFDF1E7D0F8B432B1
:105A70009B6898470446EBE790F89C32022B04D0D1
:105A8000032B11D0FFF7D0FDE2E70AB1802A03D142
:105A90002846FFF7C9FDDBE7114601F07EF98021BA
:105AA000284601F07AF9D3E74B8823B91AB1802A46
:105AB00001D0CB881BB1284600F0EEF8C8E71146AC
:105AC00001F06BF9F7E790F89C32022B04D0032B1E
:105AD00011D0FFF7A9FDBBE70AB1802A03D1284600
